{
  "_format": "hh3-artifact-1",
  "contractName": "postJob",
  "sourceName": "contracts/PostJobs.sol",
  "abi": [
    {
      "anonymous": false,
      "inputs": [
        {
          "indexed": true,
          "internalType": "address",
          "name": "user",
          "type": "address"
        },
        {
          "indexed": false,
          "internalType": "string",
          "name": "jobId",
          "type": "string"
        }
      ],
      "name": "Applied",
      "type": "event"
    },
    {
      "anonymous": false,
      "inputs": [
        {
          "indexed": true,
          "internalType": "address",
          "name": "freelancer",
          "type": "address"
        },
        {
          "indexed": false,
          "internalType": "string",
          "name": "jobId",
          "type": "string"
        },
        {
          "indexed": false,
          "internalType": "string",
          "name": "budget",
          "type": "string"
        }
      ],
      "name": "JobCompleted",
      "type": "event"
    },
    {
      "anonymous": false,
      "inputs": [
        {
          "indexed": true,
          "internalType": "address",
          "name": "payer",
          "type": "address"
        },
        {
          "indexed": true,
          "internalType": "address",
          "name": "freelancer",
          "type": "address"
        },
        {
          "indexed": false,
          "internalType": "string",
          "name": "jobId",
          "type": "string"
        },
        {
          "indexed": false,
          "internalType": "uint256",
          "name": "amount",
          "type": "uint256"
        }
      ],
      "name": "JobFinalizedAndPaid",
      "type": "event"
    },
    {
      "anonymous": false,
      "inputs": [
        {
          "indexed": true,
          "internalType": "address",
          "name": "user",
          "type": "address"
        },
        {
          "indexed": true,
          "internalType": "string",
          "name": "jobId",
          "type": "string"
        },
        {
          "indexed": false,
          "internalType": "enum postJob.ApplicationStatus",
          "name": "newStatus",
          "type": "uint8"
        }
      ],
      "name": "StatusUpdated",
      "type": "event"
    },
    {
      "inputs": [
        {
          "internalType": "string",
          "name": "_id",
          "type": "string"
        },
        {
          "internalType": "address",
          "name": "_freelancer",
          "type": "address"
        }
      ],
      "name": "acceptWorkAndPay",
      "outputs": [],
      "stateMutability": "payable",
      "type": "function"
    },
    {
      "inputs": [
        {
          "internalType": "string",
          "name": "",
          "type": "string"
        },
        {
          "internalType": "address",
          "name": "",
          "type": "address"
        }
      ],
      "name": "applicationStatus",
      "outputs": [
        {
          "internalType": "enum postJob.ApplicationStatus",
          "name": "",
          "type": "uint8"
        }
      ],
      "stateMutability": "view",
      "type": "function"
    },
    {
      "inputs": [
        {
          "internalType": "address",
          "name": "",
          "type": "address"
        },
        {
          "internalType": "uint256",
          "name": "",
          "type": "uint256"
        }
      ],
      "name": "appliedJobs",
      "outputs": [
        {
          "internalType": "string",
          "name": "",
          "type": "string"
        }
      ],
      "stateMutability": "view",
      "type": "function"
    },
    {
      "inputs": [
        {
          "internalType": "string",
          "name": "_id",
          "type": "string"
        }
      ],
      "name": "applyJob",
      "outputs": [],
      "stateMutability": "nonpayable",
      "type": "function"
    },
    {
      "inputs": [
        {
          "internalType": "string",
          "name": "_id",
          "type": "string"
        }
      ],
      "name": "completeJob",
      "outputs": [],
      "stateMutability": "nonpayable",
      "type": "function"
    },
    {
      "inputs": [
        {
          "internalType": "uint256",
          "name": "",
          "type": "uint256"
        }
      ],
      "name": "completedJobsList",
      "outputs": [
        {
          "internalType": "address",
          "name": "freelancer",
          "type": "address"
        },
        {
          "internalType": "string",
          "name": "jobId",
          "type": "string"
        },
        {
          "internalType": "string",
          "name": "budget",
          "type": "string"
        },
        {
          "internalType": "uint256",
          "name": "timestamp",
          "type": "uint256"
        }
      ],
      "stateMutability": "view",
      "type": "function"
    },
    {
      "inputs": [],
      "name": "getAllCompletedJobs",
      "outputs": [
        {
          "components": [
            {
              "internalType": "address",
              "name": "freelancer",
              "type": "address"
            },
            {
              "internalType": "string",
              "name": "jobId",
              "type": "string"
            },
            {
              "internalType": "string",
              "name": "budget",
              "type": "string"
            },
            {
              "internalType": "uint256",
              "name": "timestamp",
              "type": "uint256"
            }
          ],
          "internalType": "struct postJob.CompletedJobData[]",
          "name": "",
          "type": "tuple[]"
        }
      ],
      "stateMutability": "view",
      "type": "function"
    },
    {
      "inputs": [
        {
          "internalType": "string",
          "name": "_id",
          "type": "string"
        },
        {
          "internalType": "address",
          "name": "_applicant",
          "type": "address"
        }
      ],
      "name": "getApplicationStatus",
      "outputs": [
        {
          "internalType": "enum postJob.ApplicationStatus",
          "name": "",
          "type": "uint8"
        }
      ],
      "stateMutability": "view",
      "type": "function"
    },
    {
      "inputs": [
        {
          "internalType": "address",
          "name": "user",
          "type": "address"
        }
      ],
      "name": "getAppliedJobs",
      "outputs": [
        {
          "internalType": "string[]",
          "name": "",
          "type": "string[]"
        }
      ],
      "stateMutability": "view",
      "type": "function"
    },
    {
      "inputs": [
        {
          "internalType": "string",
          "name": "_id",
          "type": "string"
        }
      ],
      "name": "getJob",
      "outputs": [
        {
          "internalType": "string",
          "name": "title",
          "type": "string"
        },
        {
          "internalType": "string",
          "name": "description",
          "type": "string"
        },
        {
          "internalType": "string",
          "name": "budget",
          "type": "string"
        },
        {
          "internalType": "string[]",
          "name": "tools",
          "type": "string[]"
        }
      ],
      "stateMutability": "view",
      "type": "function"
    },
    {
      "inputs": [
        {
          "internalType": "string",
          "name": "",
          "type": "string"
        }
      ],
      "name": "isJobCompleted",
      "outputs": [
        {
          "internalType": "bool",
          "name": "",
          "type": "bool"
        }
      ],
      "stateMutability": "view",
      "type": "function"
    },
    {
      "inputs": [
        {
          "internalType": "string",
          "name": "",
          "type": "string"
        },
        {
          "internalType": "address",
          "name": "",
          "type": "address"
        }
      ],
      "name": "isJobPaid",
      "outputs": [
        {
          "internalType": "bool",
          "name": "",
          "type": "bool"
        }
      ],
      "stateMutability": "view",
      "type": "function"
    },
    {
      "inputs": [
        {
          "internalType": "uint256",
          "name": "",
          "type": "uint256"
        }
      ],
      "name": "jobIds",
      "outputs": [
        {
          "internalType": "string",
          "name": "",
          "type": "string"
        }
      ],
      "stateMutability": "view",
      "type": "function"
    },
    {
      "inputs": [
        {
          "internalType": "string",
          "name": "",
          "type": "string"
        }
      ],
      "name": "jobOwner",
      "outputs": [
        {
          "internalType": "address",
          "name": "",
          "type": "address"
        }
      ],
      "stateMutability": "view",
      "type": "function"
    },
    {
      "inputs": [
        {
          "internalType": "string",
          "name": "",
          "type": "string"
        }
      ],
      "name": "jobsposting",
      "outputs": [
        {
          "internalType": "string",
          "name": "title",
          "type": "string"
        },
        {
          "internalType": "string",
          "name": "description",
          "type": "string"
        },
        {
          "internalType": "string",
          "name": "budget",
          "type": "string"
        }
      ],
      "stateMutability": "view",
      "type": "function"
    },
    {
      "inputs": [
        {
          "internalType": "string",
          "name": "_id",
          "type": "string"
        },
        {
          "internalType": "string",
          "name": "_title",
          "type": "string"
        },
        {
          "internalType": "string",
          "name": "_description",
          "type": "string"
        },
        {
          "internalType": "string",
          "name": "_budget",
          "type": "string"
        },
        {
          "internalType": "string[]",
          "name": "_tools",
          "type": "string[]"
        }
      ],
      "name": "posting",
      "outputs": [],
      "stateMutability": "nonpayable",
      "type": "function"
    },
    {
      "inputs": [],
      "name": "totalJobs",
      "outputs": [
        {
          "internalType": "uint256",
          "name": "",
          "type": "uint256"
        }
      ],
      "stateMutability": "view",
      "type": "function"
    },
    {
      "inputs": [
        {
          "internalType": "string",
          "name": "_id",
          "type": "string"
        },
        {
          "internalType": "address",
          "name": "_applicant",
          "type": "address"
        },
        {
          "internalType": "enum postJob.ApplicationStatus",
          "name": "_newStatus",
          "type": "uint8"
        }
      ],
      "name": "updateApplicationStatus",
      "outputs": [],
      "stateMutability": "nonpayable",
      "type": "function"
    }
  ],
  "bytecode": "0x6080604052348015600e575f5ffd5b506120c78061001c5f395ff3fe608060405260043610610105575f3560e01c8063693b6a6311610092578063a3283b7f11610062578063a3283b7f14610315578063b0f3dfde14610328578063b65481ac14610380578063ce26ae85146103d9578063d7dd8d4c14610405575f5ffd5b8063693b6a63146102795780636cad1af91461029857806377e32407146102c7578063a010f227146102f6575f5ffd5b806343bd8d48116100d857806343bd8d481461019657806347d257cc146101c257806350db653f146101e357806357f026fe146102115780635c6b83ac1461025a575f5ffd5b80631ace87b3146101095780632edffc951461012a5780633a0f9758146101565780634162cc8814610177575b5f5ffd5b348015610114575f5ffd5b505f546040519081526020015b60405180910390f35b348015610135575f5ffd5b50610149610144366004611893565b61043f565b60405161012191906118e9565b348015610161575f5ffd5b5061016a6104f0565b6040516101219190611902565b348015610182575f5ffd5b506101496101913660046119ac565b61068d565b3480156101a1575f5ffd5b506101b56101b0366004611a72565b6106b3565b6040516101219190611ad0565b3480156101cd575f5ffd5b506101e16101dc366004611b98565b6106f5565b005b3480156101ee575f5ffd5b506102026101fd366004611c76565b610883565b60405161012193929190611caf565b34801561021c575f5ffd5b506101b561022b366004611a72565b81516020818401810180516004825292820194820194909420919093529091525f908152604090205460ff1681565b348015610265575f5ffd5b506101e1610274366004611c76565b610a42565b348015610284575f5ffd5b506101e1610293366004611ce7565b610b85565b3480156102a3575f5ffd5b506102b76102b23660046119ac565b610ca8565b6040516101219493929190611d47565b3480156102d2575f5ffd5b506102e66102e1366004611c76565b610df8565b6040516101219493929190611de8565b348015610301575f5ffd5b506101e1610310366004611c76565b6110aa565b6101e1610323366004611a72565b6113a1565b348015610333575f5ffd5b50610368610342366004611c76565b80516020818301810180516002825292820191909301209152546001600160a01b031681565b6040516001600160a01b039091168152602001610121565b34801561038b575f5ffd5b506103c961039a366004611a72565b81516020818401810180516007825292820194820194909420919093529091525f908152604090205460ff1681565b6040519015158152602001610121565b3480156103e4575f5ffd5b506103f86103f3366004611e3f565b6116d0565b6040516101219190611e58565b348015610410575f5ffd5b506103c961041f366004611c76565b805160208183018101805160068252928201919093012091525460ff1681565b6003602052815f5260405f208181548110610458575f80fd5b905f5260205f20015f9150915050805461047190611e6a565b80601f016020809104026020016040519081016040528092919081815260200182805461049d90611e6a565b80156104e85780601f106104bf576101008083540402835291602001916104e8565b820191905f5260205f20905b8154815290600101906020018083116104cb57829003601f168201915b505050505081565b60606005805480602002602001604051908101604052809291908181526020015f905b82821015610684575f84815260209081902060408051608081019091526004850290910180546001600160a01b03168252600181018054929391929184019161055b90611e6a565b80601f016020809104026020016040519081016040528092919081815260200182805461058790611e6a565b80156105d25780601f106105a9576101008083540402835291602001916105d2565b820191905f5260205f20905b8154815290600101906020018083116105b557829003601f168201915b505050505081526020016002820180546105eb90611e6a565b80601f016020809104026020016040519081016040528092919081815260200182805461061790611e6a565b80156106625780601f1061063957610100808354040283529160200191610662565b820191905f5260205f20905b81548152906001019060200180831161064557829003601f168201915b5050505050815260200160038201548152505081526020019060010190610513565b50505050905090565b5f818154811061069b575f80fd5b905f5260205f20015f91509050805461047190611e6a565b5f6004836040516106c49190611ea2565b908152604080519182900360209081019092206001600160a01b0385165f908152925290205460ff16905092915050565b6001856040516107059190611ea2565b908152604051908190036020019020805461071f90611e6a565b15905061076b5760405162461bcd60e51b81526020600482015260156024820152744a6f6220494420616c72656164792065786973747360581b60448201526064015b60405180910390fd5b60405180608001604052808581526020018481526020018381526020018281525060018660405161079c9190611ea2565b908152604051908190036020019020815181906107b99082611f04565b50602082015160018201906107ce9082611f04565b50604082015160028201906107e39082611f04565b50606082015180516107ff9160038401916020909101906117ba565b50505f80546001810182559080527f290decd9548b62a8d60345a988386fc84ba6bc95484008f6362f93160ef3e56301905061083b8682611f04565b503360028660405161084d9190611ea2565b90815260405190819003602001902080546001600160a01b03929092166001600160a01b03199092169190911790555050505050565b80516020818301810180516001825292820191909301209152805481906108a990611e6a565b80601f01602080910402602001604051908101604052809291908181526020018280546108d590611e6a565b80156109205780601f106108f757610100808354040283529160200191610920565b820191905f5260205f20905b81548152906001019060200180831161090357829003601f168201915b50505050509080600101805461093590611e6a565b80601f016020809104026020016040519081016040528092919081815260200182805461096190611e6a565b80156109ac5780601f10610983576101008083540402835291602001916109ac565b820191905f5260205f20905b81548152906001019060200180831161098f57829003601f168201915b5050505050908060020180546109c190611e6a565b80601f01602080910402602001604051908101604052809291908181526020018280546109ed90611e6a565b8015610a385780601f10610a0f57610100808354040283529160200191610a38565b820191905f5260205f20905b815481529060010190602001808311610a1b57829003601f168201915b5050505050905083565b335f908152600360205260408120905b8154811015610ad9578280519060200120828281548110610a7557610a75611fbe565b905f5260205f2001604051610a8a9190611fd2565b604051809103902003610ad15760405162461bcd60e51b815260206004820152600f60248201526e105b1c9958591e48105c1c1b1a5959608a1b6044820152606401610762565b600101610a52565b5080546001810182555f8281526020902001610af58382611f04565b505f600483604051610b079190611ea2565b9081526040805160209281900383019020335f90815292529020805460ff19166001836002811115610b3b57610b3b611abc565b0217905550336001600160a01b03167f87e196a8a1808969619bf8db48aac53ead5c35e0cec6c11d84a3b2634dc5a7a983604051610b7991906118e9565b60405180910390a25050565b336001600160a01b0316600284604051610b9f9190611ea2565b908152604051908190036020019020546001600160a01b031614610bf95760405162461bcd60e51b81526020600482015260116024820152702737ba103a3432903537b11037bbb732b960791b6044820152606401610762565b80600484604051610c0a9190611ea2565b90815260408051602092819003830190206001600160a01b0386165f90815292529020805460ff19166001836002811115610c4757610c47611abc565b021790555082604051610c5a9190611ea2565b6040518091039020826001600160a01b03167ffdb9653d6477062585145a048295871fde2067ad6ee1cdbe37189dce0f06991a83604051610c9b9190611ad0565b60405180910390a3505050565b60058181548110610cb7575f80fd5b5f918252602090912060049091020180546001820180546001600160a01b03909216935090610ce590611e6a565b80601f0160208091040260200160405190810160405280929190818152602001828054610d1190611e6a565b8015610d5c5780601f10610d3357610100808354040283529160200191610d5c565b820191905f5260205f20905b815481529060010190602001808311610d3f57829003601f168201915b505050505090806002018054610d7190611e6a565b80601f0160208091040260200160405190810160405280929190818152602001828054610d9d90611e6a565b8015610de85780601f10610dbf57610100808354040283529160200191610de8565b820191905f5260205f20905b815481529060010190602001808311610dcb57829003601f168201915b5050505050908060030154905084565b6060806060805f600186604051610e0f9190611ea2565b90815260200160405180910390209050805f01816001018260020183600301838054610e3a90611e6a565b80601f0160208091040260200160405190810160405280929190818152602001828054610e6690611e6a565b8015610eb15780601f10610e8857610100808354040283529160200191610eb1565b820191905f5260205f20905b815481529060010190602001808311610e9457829003601f168201915b50505050509350828054610ec490611e6a565b80601f0160208091040260200160405190810160405280929190818152602001828054610ef090611e6a565b8015610f3b5780601f10610f1257610100808354040283529160200191610f3b565b820191905f5260205f20905b815481529060010190602001808311610f1e57829003601f168201915b50505050509250818054610f4e90611e6a565b80601f0160208091040260200160405190810160405280929190818152602001828054610f7a90611e6a565b8015610fc55780601f10610f9c57610100808354040283529160200191610fc5565b820191905f5260205f20905b815481529060010190602001808311610fa857829003601f168201915b5050505050915080805480602002602001604051908101604052809291908181526020015f905b82821015611094578382905f5260205f2001805461100990611e6a565b80601f016020809104026020016040519081016040528092919081815260200182805461103590611e6a565b80156110805780601f1061105757610100808354040283529160200191611080565b820191905f5260205f20905b81548152906001019060200180831161106357829003601f168201915b505050505081526020019060010190610fec565b5050505090509450945094509450509193509193565b6006816040516110ba9190611ea2565b9081526040519081900360200190205460ff161561111a5760405162461bcd60e51b815260206004820152601860248201527f4a6f6220697320616c726561647920636f6d706c6574656400000000000000006044820152606401610762565b600160048260405161112c9190611ea2565b9081526040805160209281900383019020335f908152925290205460ff16600281111561115b5761115b611abc565b146111b45760405162461bcd60e51b815260206004820152602360248201527f596f7520617265206e6f742074686520616363657074656420667265656c616e60448201526231b2b960e91b6064820152608401610762565b5f6001826040516111c59190611ea2565b908152602001604051809103902090505f8160020180546111e590611e6a565b80601f016020809104026020016040519081016040528092919081815260200182805461121190611e6a565b801561125c5780601f106112335761010080835404028352916020019161125c565b820191905f5260205f20905b81548152906001019060200180831161123f57829003601f168201915b50506040805160808101825233815260208101898152918101869052426060820152600580546001810182555f9190915281517f036b6384b5eca791c62761152d0c79bb0604c104a5fb6f4eb0703f3154bb3db0600490920291820180546001600160a01b0319166001600160a01b03909216919091178155925196975090959194507f036b6384b5eca791c62761152d0c79bb0604c104a5fb6f4eb0703f3154bb3db101925061130e915082611f04565b50604082015160028201906113239082611f04565b5060608201518160030155505060016006846040516113429190611ea2565b908152604051908190036020018120805492151560ff199093169290921790915533907fd6a57b7d2a700f2cc953a2b79db67a70c7e6bbf79dade279a1b918fa32f2e115906113949086908590612043565b60405180910390a2505050565b336001600160a01b03166002836040516113bb9190611ea2565b908152604051908190036020019020546001600160a01b0316146114155760405162461bcd60e51b81526020600482015260116024820152702737ba103a3432903537b11037bbb732b960791b6044820152606401610762565b60016004836040516114279190611ea2565b90815260408051602092819003830190206001600160a01b0385165f908152925290205460ff16600281111561145f5761145f611abc565b146114ac5760405162461bcd60e51b815260206004820152601760248201527f467265656c616e636572206e6f742061636365707465640000000000000000006044820152606401610762565b6006826040516114bc9190611ea2565b9081526040519081900360200190205460ff1661152d5760405162461bcd60e51b815260206004820152602960248201527f576f726b20686173206e6f74206265656e20636f6d706c6574656420627920666044820152683932b2b630b731b2b960b91b6064820152608401610762565b60078260405161153d9190611ea2565b90815260408051602092819003830190206001600160a01b0384165f908152925290205460ff16156115a75760405162461bcd60e51b8152602060048201526013602482015272129bd8881a5cc8185b1c9958591e481c185a59606a1b6044820152606401610762565b60405134905f906001600160a01b0384169083908381818185875af1925050503d805f81146115f1576040519150601f19603f3d011682016040523d82523d5f602084013e6115f6565b606091505b50509050806116475760405162461bcd60e51b815260206004820152601760248201527f5061796d656e74207472616e73666572206661696c65640000000000000000006044820152606401610762565b60016007856040516116599190611ea2565b90815260408051602092819003830181206001600160a01b0388165f8181529190945291909120805460ff1916931515939093179092559033907f8fa997cf9e9f718cd6f1d75e4d0d5aadb839d586ef51770fbac3908429d7fca0906116c29088908790612070565b60405180910390a350505050565b6001600160a01b0381165f908152600360209081526040808320805482518185028101850190935280835260609492939192909184015b828210156117af578382905f5260205f2001805461172490611e6a565b80601f016020809104026020016040519081016040528092919081815260200182805461175090611e6a565b801561179b5780601f106117725761010080835404028352916020019161179b565b820191905f5260205f20905b81548152906001019060200180831161177e57829003601f168201915b505050505081526020019060010190611707565b505050509050919050565b828054828255905f5260205f209081019282156117fe579160200282015b828111156117fe57825182906117ee9082611f04565b50916020019190600101906117d8565b5061180a92915061180e565b5090565b8082111561180a575f611821828261182a565b5060010161180e565b50805461183690611e6a565b5f825580601f10611845575050565b601f0160209004905f5260205f20908101906118619190611864565b50565b5b8082111561180a575f8155600101611865565b80356001600160a01b038116811461188e575f5ffd5b919050565b5f5f604083850312156118a4575f5ffd5b6118ad83611878565b946020939093013593505050565b5f81518084528060208401602086015e5f602082860101526020601f19601f83011685010191505092915050565b602081525f6118fb60208301846118bb565b9392505050565b5f602082016020835280845180835260408501915060408160051b8601019250602086015f5b828110156119a057868503603f19018452815180516001600160a01b03168652602080820151608091880182905290611963908801826118bb565b90506040820151878203604089015261197c82826118bb565b60609384015198909301979097525094506020938401939190910190600101611928565b50929695505050505050565b5f602082840312156119bc575f5ffd5b5035919050565b634e487b7160e01b5f52604160045260245ffd5b604051601f8201601f191681016001600160401b03811182821017156119ff576119ff6119c3565b604052919050565b5f82601f830112611a16575f5ffd5b81356001600160401b03811115611a2f57611a2f6119c3565b611a42601f8201601f19166020016119d7565b818152846020838601011115611a56575f5ffd5b816020850160208301375f918101602001919091529392505050565b5f5f60408385031215611a83575f5ffd5b82356001600160401b03811115611a98575f5ffd5b611aa485828601611a07565b925050611ab360208401611878565b90509250929050565b634e487b7160e01b5f52602160045260245ffd5b6020810160038310611af057634e487b7160e01b5f52602160045260245ffd5b91905290565b5f82601f830112611b05575f5ffd5b81356001600160401b03811115611b1e57611b1e6119c3565b8060051b611b2e602082016119d7565b91825260208185018101929081019086841115611b49575f5ffd5b6020860192505b83831015611b8e5782356001600160401b03811115611b6d575f5ffd5b611b7c886020838a0101611a07565b83525060209283019290910190611b50565b9695505050505050565b5f5f5f5f5f60a08688031215611bac575f5ffd5b85356001600160401b03811115611bc1575f5ffd5b611bcd88828901611a07565b95505060208601356001600160401b03811115611be8575f5ffd5b611bf488828901611a07565b94505060408601356001600160401b03811115611c0f575f5ffd5b611c1b88828901611a07565b93505060608601356001600160401b03811115611c36575f5ffd5b611c4288828901611a07565b92505060808601356001600160401b03811115611c5d575f5ffd5b611c6988828901611af6565b9150509295509295909350565b5f60208284031215611c86575f5ffd5b81356001600160401b03811115611c9b575f5ffd5b611ca784828501611a07565b949350505050565b606081525f611cc160608301866118bb565b8281036020840152611cd381866118bb565b90508281036040840152611b8e81856118bb565b5f5f5f60608486031215611cf9575f5ffd5b83356001600160401b03811115611d0e575f5ffd5b611d1a86828701611a07565b935050611d2960208501611878565b9150604084013560038110611d3c575f5ffd5b809150509250925092565b6001600160a01b03851681526080602082018190525f90611d6a908301866118bb565b8281036040840152611d7c81866118bb565b91505082606083015295945050505050565b5f82825180855260208501945060208160051b830101602085015f5b83811015611ddc57601f19858403018852611dc68383516118bb565b6020988901989093509190910190600101611daa565b50909695505050505050565b608081525f611dfa60808301876118bb565b8281036020840152611e0c81876118bb565b90508281036040840152611e2081866118bb565b90508281036060840152611e348185611d8e565b979650505050505050565b5f60208284031215611e4f575f5ffd5b6118fb82611878565b602081525f6118fb6020830184611d8e565b600181811c90821680611e7e57607f821691505b602082108103611e9c57634e487b7160e01b5f52602260045260245ffd5b50919050565b5f82518060208501845e5f920191825250919050565b601f821115611eff57805f5260205f20601f840160051c81016020851015611edd5750805b601f840160051c820191505b81811015611efc575f8155600101611ee9565b50505b505050565b81516001600160401b03811115611f1d57611f1d6119c3565b611f3181611f2b8454611e6a565b84611eb8565b6020601f821160018114611f63575f8315611f4c5750848201515b5f19600385901b1c1916600184901b178455611efc565b5f84815260208120601f198516915b82811015611f925787850151825560209485019460019092019101611f72565b5084821015611faf57868401515f19600387901b60f8161c191681555b50505050600190811b01905550565b634e487b7160e01b5f52603260045260245ffd5b5f5f8354611fdf81611e6a565b600182168015611ff6576001811461200b57612038565b60ff1983168652811515820286019350612038565b865f5260205f205f5b8381101561203057815488820152600190910190602001612014565b505081860193505b509195945050505050565b604081525f61205560408301856118bb565b828103602084015261206781856118bb565b95945050505050565b604081525f61208260408301856118bb565b9050826020830152939250505056fea26469706673582212209fb289124f36aebd86cb1f8c02837034d63f4b468afc42b2e547804fa570846564736f6c634300081e0033",
  "linkReferences": {},
  "deployedLinkReferences": {},
  "immutableReferences": {},
  "inputSourceName": "project/contracts/PostJobs.sol",
  "buildInfoId": "solc-0_8_30-10d27a0de141b9a5326447c855caab99abc60c17"
}