{
  "_format": "hh3-artifact-1",
  "contractName": "postJob",
  "sourceName": "contracts/PostJobs.sol",
  "abi": [
    {
      "anonymous": false,
      "inputs": [
        {
          "indexed": true,
          "internalType": "address",
          "name": "user",
          "type": "address"
        },
        {
          "indexed": false,
          "internalType": "string",
          "name": "jobId",
          "type": "string"
        }
      ],
      "name": "Applied",
      "type": "event"
    },
    {
      "anonymous": false,
      "inputs": [
        {
          "indexed": true,
          "internalType": "address",
          "name": "user",
          "type": "address"
        },
        {
          "indexed": true,
          "internalType": "string",
          "name": "jobId",
          "type": "string"
        },
        {
          "indexed": false,
          "internalType": "enum postJob.ApplicationStatus",
          "name": "newStatus",
          "type": "uint8"
        }
      ],
      "name": "StatusUpdated",
      "type": "event"
    },
    {
      "inputs": [
        {
          "internalType": "string",
          "name": "",
          "type": "string"
        },
        {
          "internalType": "address",
          "name": "",
          "type": "address"
        }
      ],
      "name": "applicationStatus",
      "outputs": [
        {
          "internalType": "enum postJob.ApplicationStatus",
          "name": "",
          "type": "uint8"
        }
      ],
      "stateMutability": "view",
      "type": "function"
    },
    {
      "inputs": [
        {
          "internalType": "address",
          "name": "",
          "type": "address"
        },
        {
          "internalType": "uint256",
          "name": "",
          "type": "uint256"
        }
      ],
      "name": "appliedJobs",
      "outputs": [
        {
          "internalType": "string",
          "name": "",
          "type": "string"
        }
      ],
      "stateMutability": "view",
      "type": "function"
    },
    {
      "inputs": [
        {
          "internalType": "string",
          "name": "_id",
          "type": "string"
        }
      ],
      "name": "applyJob",
      "outputs": [],
      "stateMutability": "nonpayable",
      "type": "function"
    },
    {
      "inputs": [
        {
          "internalType": "string",
          "name": "_id",
          "type": "string"
        },
        {
          "internalType": "address",
          "name": "_applicant",
          "type": "address"
        }
      ],
      "name": "getApplicationStatus",
      "outputs": [
        {
          "internalType": "enum postJob.ApplicationStatus",
          "name": "",
          "type": "uint8"
        }
      ],
      "stateMutability": "view",
      "type": "function"
    },
    {
      "inputs": [
        {
          "internalType": "address",
          "name": "user",
          "type": "address"
        }
      ],
      "name": "getAppliedJobs",
      "outputs": [
        {
          "internalType": "string[]",
          "name": "",
          "type": "string[]"
        }
      ],
      "stateMutability": "view",
      "type": "function"
    },
    {
      "inputs": [
        {
          "internalType": "string",
          "name": "_id",
          "type": "string"
        }
      ],
      "name": "getJob",
      "outputs": [
        {
          "internalType": "string",
          "name": "title",
          "type": "string"
        },
        {
          "internalType": "string",
          "name": "description",
          "type": "string"
        },
        {
          "internalType": "string",
          "name": "budget",
          "type": "string"
        },
        {
          "internalType": "string[]",
          "name": "tools",
          "type": "string[]"
        }
      ],
      "stateMutability": "view",
      "type": "function"
    },
    {
      "inputs": [
        {
          "internalType": "string",
          "name": "",
          "type": "string"
        },
        {
          "internalType": "address",
          "name": "",
          "type": "address"
        }
      ],
      "name": "jobCompleted",
      "outputs": [
        {
          "internalType": "bool",
          "name": "",
          "type": "bool"
        }
      ],
      "stateMutability": "view",
      "type": "function"
    },
    {
      "inputs": [
        {
          "internalType": "uint256",
          "name": "",
          "type": "uint256"
        }
      ],
      "name": "jobIds",
      "outputs": [
        {
          "internalType": "string",
          "name": "",
          "type": "string"
        }
      ],
      "stateMutability": "view",
      "type": "function"
    },
    {
      "inputs": [
        {
          "internalType": "string",
          "name": "",
          "type": "string"
        }
      ],
      "name": "jobOwner",
      "outputs": [
        {
          "internalType": "address",
          "name": "",
          "type": "address"
        }
      ],
      "stateMutability": "view",
      "type": "function"
    },
    {
      "inputs": [
        {
          "internalType": "string",
          "name": "",
          "type": "string"
        }
      ],
      "name": "jobsposting",
      "outputs": [
        {
          "internalType": "string",
          "name": "title",
          "type": "string"
        },
        {
          "internalType": "string",
          "name": "description",
          "type": "string"
        },
        {
          "internalType": "string",
          "name": "budget",
          "type": "string"
        }
      ],
      "stateMutability": "view",
      "type": "function"
    },
    {
      "inputs": [
        {
          "internalType": "string",
          "name": "_id",
          "type": "string"
        }
      ],
      "name": "markCompleted",
      "outputs": [],
      "stateMutability": "nonpayable",
      "type": "function"
    },
    {
      "inputs": [
        {
          "internalType": "string",
          "name": "_id",
          "type": "string"
        },
        {
          "internalType": "string",
          "name": "_title",
          "type": "string"
        },
        {
          "internalType": "string",
          "name": "_description",
          "type": "string"
        },
        {
          "internalType": "string",
          "name": "_budget",
          "type": "string"
        },
        {
          "internalType": "string[]",
          "name": "_tools",
          "type": "string[]"
        }
      ],
      "name": "posting",
      "outputs": [],
      "stateMutability": "nonpayable",
      "type": "function"
    },
    {
      "inputs": [],
      "name": "totalJobs",
      "outputs": [
        {
          "internalType": "uint256",
          "name": "",
          "type": "uint256"
        }
      ],
      "stateMutability": "view",
      "type": "function"
    },
    {
      "inputs": [
        {
          "internalType": "string",
          "name": "_id",
          "type": "string"
        },
        {
          "internalType": "address",
          "name": "_applicant",
          "type": "address"
        },
        {
          "internalType": "enum postJob.ApplicationStatus",
          "name": "_newStatus",
          "type": "uint8"
        }
      ],
      "name": "updateApplicationStatus",
      "outputs": [],
      "stateMutability": "nonpayable",
      "type": "function"
    }
  ],
  "bytecode": "0x6080604052348015600e575f5ffd5b506115dc8061001c5f395ff3fe608060405234801561000f575f5ffd5b50600436106100e5575f3560e01c80635c6b83ac11610088578063a0ba369c11610063578063a0ba369c1461020e578063b0f3dfde1461025b578063ce26ae85146102a7578063d2fd02be146102c7575f5ffd5b80635c6b83ac146101c5578063693b6a63146101d857806377e32407146101eb575f5ffd5b806343bd8d48116100c357806343bd8d481461013157806347d257cc1461015157806350db653f1461016657806357f026fe14610188575f5ffd5b80631ace87b3146100e95780632edffc95146100fe5780634162cc881461011e575b5f5ffd5b5f546040519081526020015b60405180910390f35b61011161010c366004610ee7565b6102da565b6040516100f59190610f3d565b61011161012c366004610f56565b61038b565b61014461013f36600461101c565b6103b1565b6040516100f5919061107a565b61016461015f366004611142565b6103f3565b005b610179610174366004611220565b610581565b6040516100f593929190611259565b61014461019636600461101c565b81516020818401810180516004825292820194820194909420919093529091525f908152604090205460ff1681565b6101646101d3366004611220565b610740565b6101646101e6366004611291565b610883565b6101fe6101f9366004611220565b6109a6565b6040516100f5949392919061134b565b61024b61021c36600461101c565b81516020818401810180516005825292820194820194909420919093529091525f908152604090205460ff1681565b60405190151581526020016100f5565b61028f610269366004611220565b80516020818301810180516002825292820191909301209152546001600160a01b031681565b6040516001600160a01b0390911681526020016100f5565b6102ba6102b53660046113a2565b610c58565b6040516100f591906113bb565b6101646102d5366004611220565b610d42565b6003602052815f5260405f2081815481106102f3575f80fd5b905f5260205f20015f9150915050805461030c906113cd565b80601f0160208091040260200160405190810160405280929190818152602001828054610338906113cd565b80156103835780601f1061035a57610100808354040283529160200191610383565b820191905f5260205f20905b81548152906001019060200180831161036657829003601f168201915b505050505081565b5f8181548110610399575f80fd5b905f5260205f20015f91509050805461030c906113cd565b5f6004836040516103c29190611405565b908152604080519182900360209081019092206001600160a01b0385165f908152925290205460ff16905092915050565b6001856040516104039190611405565b908152604051908190036020019020805461041d906113cd565b1590506104695760405162461bcd60e51b81526020600482015260156024820152744a6f6220494420616c72656164792065786973747360581b60448201526064015b60405180910390fd5b60405180608001604052808581526020018481526020018381526020018281525060018660405161049a9190611405565b908152604051908190036020019020815181906104b79082611467565b50602082015160018201906104cc9082611467565b50604082015160028201906104e19082611467565b50606082015180516104fd916003840191602090910190610e0e565b50505f80546001810182559080527f290decd9548b62a8d60345a988386fc84ba6bc95484008f6362f93160ef3e5630190506105398682611467565b503360028660405161054b9190611405565b90815260405190819003602001902080546001600160a01b03929092166001600160a01b03199092169190911790555050505050565b80516020818301810180516001825292820191909301209152805481906105a7906113cd565b80601f01602080910402602001604051908101604052809291908181526020018280546105d3906113cd565b801561061e5780601f106105f55761010080835404028352916020019161061e565b820191905f5260205f20905b81548152906001019060200180831161060157829003601f168201915b505050505090806001018054610633906113cd565b80601f016020809104026020016040519081016040528092919081815260200182805461065f906113cd565b80156106aa5780601f10610681576101008083540402835291602001916106aa565b820191905f5260205f20905b81548152906001019060200180831161068d57829003601f168201915b5050505050908060020180546106bf906113cd565b80601f01602080910402602001604051908101604052809291908181526020018280546106eb906113cd565b80156107365780601f1061070d57610100808354040283529160200191610736565b820191905f5260205f20905b81548152906001019060200180831161071957829003601f168201915b5050505050905083565b335f908152600360205260408120905b81548110156107d757828051906020012082828154811061077357610773611521565b905f5260205f20016040516107889190611535565b6040518091039020036107cf5760405162461bcd60e51b815260206004820152600f60248201526e105b1c9958591e48105c1c1b1a5959608a1b6044820152606401610460565b600101610750565b5080546001810182555f82815260209020016107f38382611467565b505f6004836040516108059190611405565b9081526040805160209281900383019020335f90815292529020805460ff1916600183600281111561083957610839611066565b0217905550336001600160a01b03167f87e196a8a1808969619bf8db48aac53ead5c35e0cec6c11d84a3b2634dc5a7a9836040516108779190610f3d565b60405180910390a25050565b336001600160a01b031660028460405161089d9190611405565b908152604051908190036020019020546001600160a01b0316146108f75760405162461bcd60e51b81526020600482015260116024820152702737ba103a3432903537b11037bbb732b960791b6044820152606401610460565b806004846040516109089190611405565b90815260408051602092819003830190206001600160a01b0386165f90815292529020805460ff1916600183600281111561094557610945611066565b0217905550826040516109589190611405565b6040518091039020826001600160a01b03167ffdb9653d6477062585145a048295871fde2067ad6ee1cdbe37189dce0f06991a83604051610999919061107a565b60405180910390a3505050565b6060806060805f6001866040516109bd9190611405565b90815260200160405180910390209050805f018160010182600201836003018380546109e8906113cd565b80601f0160208091040260200160405190810160405280929190818152602001828054610a14906113cd565b8015610a5f5780601f10610a3657610100808354040283529160200191610a5f565b820191905f5260205f20905b815481529060010190602001808311610a4257829003601f168201915b50505050509350828054610a72906113cd565b80601f0160208091040260200160405190810160405280929190818152602001828054610a9e906113cd565b8015610ae95780601f10610ac057610100808354040283529160200191610ae9565b820191905f5260205f20905b815481529060010190602001808311610acc57829003601f168201915b50505050509250818054610afc906113cd565b80601f0160208091040260200160405190810160405280929190818152602001828054610b28906113cd565b8015610b735780601f10610b4a57610100808354040283529160200191610b73565b820191905f5260205f20905b815481529060010190602001808311610b5657829003601f168201915b5050505050915080805480602002602001604051908101604052809291908181526020015f905b82821015610c42578382905f5260205f20018054610bb7906113cd565b80601f0160208091040260200160405190810160405280929190818152602001828054610be3906113cd565b8015610c2e5780601f10610c0557610100808354040283529160200191610c2e565b820191905f5260205f20905b815481529060010190602001808311610c1157829003601f168201915b505050505081526020019060010190610b9a565b5050505090509450945094509450509193509193565b6001600160a01b0381165f908152600360209081526040808320805482518185028101850190935280835260609492939192909184015b82821015610d37578382905f5260205f20018054610cac906113cd565b80601f0160208091040260200160405190810160405280929190818152602001828054610cd8906113cd565b8015610d235780601f10610cfa57610100808354040283529160200191610d23565b820191905f5260205f20905b815481529060010190602001808311610d0657829003601f168201915b505050505081526020019060010190610c8f565b505050509050919050565b6001600482604051610d549190611405565b9081526040805160209281900383019020335f908152925290205460ff166002811115610d8357610d83611066565b14610dd05760405162461bcd60e51b815260206004820152601960248201527f4e6f7420616363657074656420666f722074686973206a6f62000000000000006044820152606401610460565b6001600582604051610de29190611405565b9081526040805160209281900383019020335f90815292529020805460ff191691151591909117905550565b828054828255905f5260205f20908101928215610e52579160200282015b82811115610e525782518290610e429082611467565b5091602001919060010190610e2c565b50610e5e929150610e62565b5090565b80821115610e5e575f610e758282610e7e565b50600101610e62565b508054610e8a906113cd565b5f825580601f10610e99575050565b601f0160209004905f5260205f2090810190610eb59190610eb8565b50565b5b80821115610e5e575f8155600101610eb9565b80356001600160a01b0381168114610ee2575f5ffd5b919050565b5f5f60408385031215610ef8575f5ffd5b610f0183610ecc565b946020939093013593505050565b5f81518084528060208401602086015e5f602082860101526020601f19601f83011685010191505092915050565b602081525f610f4f6020830184610f0f565b9392505050565b5f60208284031215610f66575f5ffd5b5035919050565b634e487b7160e01b5f52604160045260245ffd5b604051601f8201601f191681016001600160401b0381118282101715610fa957610fa9610f6d565b604052919050565b5f82601f830112610fc0575f5ffd5b81356001600160401b03811115610fd957610fd9610f6d565b610fec601f8201601f1916602001610f81565b818152846020838601011115611000575f5ffd5b816020850160208301375f918101602001919091529392505050565b5f5f6040838503121561102d575f5ffd5b82356001600160401b03811115611042575f5ffd5b61104e85828601610fb1565b92505061105d60208401610ecc565b90509250929050565b634e487b7160e01b5f52602160045260245ffd5b602081016003831061109a57634e487b7160e01b5f52602160045260245ffd5b91905290565b5f82601f8301126110af575f5ffd5b81356001600160401b038111156110c8576110c8610f6d565b8060051b6110d860208201610f81565b918252602081850181019290810190868411156110f3575f5ffd5b6020860192505b838310156111385782356001600160401b03811115611117575f5ffd5b611126886020838a0101610fb1565b835250602092830192909101906110fa565b9695505050505050565b5f5f5f5f5f60a08688031215611156575f5ffd5b85356001600160401b0381111561116b575f5ffd5b61117788828901610fb1565b95505060208601356001600160401b03811115611192575f5ffd5b61119e88828901610fb1565b94505060408601356001600160401b038111156111b9575f5ffd5b6111c588828901610fb1565b93505060608601356001600160401b038111156111e0575f5ffd5b6111ec88828901610fb1565b92505060808601356001600160401b03811115611207575f5ffd5b611213888289016110a0565b9150509295509295909350565b5f60208284031215611230575f5ffd5b81356001600160401b03811115611245575f5ffd5b61125184828501610fb1565b949350505050565b606081525f61126b6060830186610f0f565b828103602084015261127d8186610f0f565b905082810360408401526111388185610f0f565b5f5f5f606084860312156112a3575f5ffd5b83356001600160401b038111156112b8575f5ffd5b6112c486828701610fb1565b9350506112d360208501610ecc565b91506040840135600381106112e6575f5ffd5b809150509250925092565b5f82825180855260208501945060208160051b830101602085015f5b8381101561133f57601f19858403018852611329838351610f0f565b602098890198909350919091019060010161130d565b50909695505050505050565b608081525f61135d6080830187610f0f565b828103602084015261136f8187610f0f565b905082810360408401526113838186610f0f565b9050828103606084015261139781856112f1565b979650505050505050565b5f602082840312156113b2575f5ffd5b610f4f82610ecc565b602081525f610f4f60208301846112f1565b600181811c908216806113e157607f821691505b6020821081036113ff57634e487b7160e01b5f52602260045260245ffd5b50919050565b5f82518060208501845e5f920191825250919050565b601f82111561146257805f5260205f20601f840160051c810160208510156114405750805b601f840160051c820191505b8181101561145f575f815560010161144c565b50505b505050565b81516001600160401b0381111561148057611480610f6d565b6114948161148e84546113cd565b8461141b565b6020601f8211600181146114c6575f83156114af5750848201515b5f19600385901b1c1916600184901b17845561145f565b5f84815260208120601f198516915b828110156114f557878501518255602094850194600190920191016114d5565b508482101561151257868401515f19600387901b60f8161c191681555b50505050600190811b01905550565b634e487b7160e01b5f52603260045260245ffd5b5f5f8354611542816113cd565b600182168015611559576001811461156e5761159b565b60ff198316865281151582028601935061159b565b865f5260205f205f5b8381101561159357815488820152600190910190602001611577565b505081860193505b50919594505050505056fea26469706673582212208bf4956713857e8efe37dfcbd9e064158715cb2481b205e6a0ea7fa29bbbd9c664736f6c634300081e0033",
  "linkReferences": {},
  "deployedLinkReferences": {},
  "immutableReferences": {},
  "inputSourceName": "project/contracts/PostJobs.sol",
  "buildInfoId": "solc-0_8_30-49dc11f4340c8ea96a29497f7b5fac68e37a632b"
}