{
  "_format": "hh3-artifact-1",
  "contractName": "postJob",
  "sourceName": "contracts/PostJobs.sol",
  "abi": [
    {
      "inputs": [
        {
          "internalType": "string",
          "name": "",
          "type": "string"
        }
      ],
      "name": "jobsposting",
      "outputs": [
        {
          "internalType": "string",
          "name": "title",
          "type": "string"
        },
        {
          "internalType": "string",
          "name": "description",
          "type": "string"
        },
        {
          "internalType": "string",
          "name": "budget",
          "type": "string"
        }
      ],
      "stateMutability": "view",
      "type": "function"
    },
    {
      "inputs": [
        {
          "internalType": "string",
          "name": "_id",
          "type": "string"
        },
        {
          "internalType": "string",
          "name": "_title",
          "type": "string"
        },
        {
          "internalType": "string",
          "name": "_description",
          "type": "string"
        },
        {
          "internalType": "string",
          "name": "_budget",
          "type": "string"
        },
        {
          "internalType": "string[]",
          "name": "_tools",
          "type": "string[]"
        }
      ],
      "name": "posting",
      "outputs": [],
      "stateMutability": "nonpayable",
      "type": "function"
    }
  ],
  "bytecode": "0x6080604052348015600e575f5ffd5b506107f48061001c5f395ff3fe608060405234801561000f575f5ffd5b5060043610610034575f3560e01c806347d257cc1461003857806350db653f1461004d575b5f5ffd5b61004b6100463660046104e6565b610078565b005b61006061005b3660046105c9565b610115565b60405161006f93929190610631565b60405180910390f35b6040518060800160405280858152602001848152602001838152602001828152505f866040516100a89190610669565b908152604051908190036020019020815181906100c59082610703565b50602082015160018201906100da9082610703565b50604082015160028201906100ef9082610703565b506060820151805161010b9160038401916020909101906102d3565b5050505050505050565b80516020818301810180515f8252928201919093012091528054819061013a9061067f565b80601f01602080910402602001604051908101604052809291908181526020018280546101669061067f565b80156101b15780601f10610188576101008083540402835291602001916101b1565b820191905f5260205f20905b81548152906001019060200180831161019457829003601f168201915b5050505050908060010180546101c69061067f565b80601f01602080910402602001604051908101604052809291908181526020018280546101f29061067f565b801561023d5780601f106102145761010080835404028352916020019161023d565b820191905f5260205f20905b81548152906001019060200180831161022057829003601f168201915b5050505050908060020180546102529061067f565b80601f016020809104026020016040519081016040528092919081815260200182805461027e9061067f565b80156102c95780601f106102a0576101008083540402835291602001916102c9565b820191905f5260205f20905b8154815290600101906020018083116102ac57829003601f168201915b5050505050905083565b828054828255905f5260205f20908101928215610317579160200282015b8281111561031757825182906103079082610703565b50916020019190600101906102f1565b50610323929150610327565b5090565b80821115610323575f61033a8282610343565b50600101610327565b50805461034f9061067f565b5f825580601f1061035e575050565b601f0160209004905f5260205f209081019061037a919061037d565b50565b5b80821115610323575f815560010161037e565b634e487b7160e01b5f52604160045260245ffd5b604051601f8201601f1916810167ffffffffffffffff811182821017156103ce576103ce610391565b604052919050565b5f82601f8301126103e5575f5ffd5b813567ffffffffffffffff8111156103ff576103ff610391565b610412601f8201601f19166020016103a5565b818152846020838601011115610426575f5ffd5b816020850160208301375f918101602001919091529392505050565b5f82601f830112610451575f5ffd5b813567ffffffffffffffff81111561046b5761046b610391565b8060051b61047b602082016103a5565b91825260208185018101929081019086841115610496575f5ffd5b6020860192505b838310156104dc57823567ffffffffffffffff8111156104bb575f5ffd5b6104ca886020838a01016103d6565b8352506020928301929091019061049d565b9695505050505050565b5f5f5f5f5f60a086880312156104fa575f5ffd5b853567ffffffffffffffff811115610510575f5ffd5b61051c888289016103d6565b955050602086013567ffffffffffffffff811115610538575f5ffd5b610544888289016103d6565b945050604086013567ffffffffffffffff811115610560575f5ffd5b61056c888289016103d6565b935050606086013567ffffffffffffffff811115610588575f5ffd5b610594888289016103d6565b925050608086013567ffffffffffffffff8111156105b0575f5ffd5b6105bc88828901610442565b9150509295509295909350565b5f602082840312156105d9575f5ffd5b813567ffffffffffffffff8111156105ef575f5ffd5b6105fb848285016103d6565b949350505050565b5f81518084528060208401602086015e5f602082860101526020601f19601f83011685010191505092915050565b606081525f6106436060830186610603565b82810360208401526106558186610603565b905082810360408401526104dc8185610603565b5f82518060208501845e5f920191825250919050565b600181811c9082168061069357607f821691505b6020821081036106b157634e487b7160e01b5f52602260045260245ffd5b50919050565b601f8211156106fe57805f5260205f20601f840160051c810160208510156106dc5750805b601f840160051c820191505b818110156106fb575f81556001016106e8565b50505b505050565b815167ffffffffffffffff81111561071d5761071d610391565b6107318161072b845461067f565b846106b7565b6020601f821160018114610763575f831561074c5750848201515b5f19600385901b1c1916600184901b1784556106fb565b5f84815260208120601f198516915b828110156107925787850151825560209485019460019092019101610772565b50848210156107af57868401515f19600387901b60f8161c191681555b50505050600190811b0190555056fea2646970667358221220ca819f2bb9be69581067bae40d72e13ced1e2127bc1d0c869d9291395d374a1d64736f6c634300081e0033",
  "linkReferences": {},
  "deployedLinkReferences": {},
  "immutableReferences": {},
  "inputSourceName": "project/contracts/PostJobs.sol",
  "buildInfoId": "solc-0_8_30-fad0049b34c1d8bd110319fb0ba1afe0421f70f3"
}